{
  "address": "0xAd0D36Fcf871c07ED0D84309E7672F99106fd8A9",
  "abi": [
    {
      "inputs": [
        {
          "internalType": "uint256",
          "name": "_i",
          "type": "uint256"
        }
      ],
      "name": "uintToStr",
      "outputs": [
        {
          "internalType": "string",
          "name": "_uintAsString",
          "type": "string"
        }
      ],
      "stateMutability": "pure",
      "type": "function"
    }
  ],
  "transactionHash": "0xf2dd983edd3da18bb66158ea12f91dd616d9b4cc23ae1dda1c7a5fba1f404889",
  "args": [],
  "numDeployments": 2,
  "solcInputHash": "3794adcbd99cac58aac30ed52b52a6d6",
  "bytecode": "0x611b50610053600b82828239805160001a607314610046577f4e487b7100000000000000000000000000000000000000000000000000000000600052600060045260246000fd5b30600052607381538281f3fe73000000000000000000000000000000000000000030146080604052600436106100875760003560e01c8063a99c268c11610065578063a99c268c1461011c578063c2e840b31461014c578063de7654401461017c578063fc966d45146101ac57610087565b80632043cc581461008c5780632bdacc0e146100bc5780634f385667146100ec575b600080fd5b6100a660048036038101906100a19190610814565b6101dc565b6040516100b3919061086f565b60405180910390f35b6100d660048036038101906100d19190610da9565b610237565b6040516100e39190611119565b60405180910390f35b6101066004803603810190610101919061113b565b6102c9565b604051610113919061086f565b60405180910390f35b61013660048036038101906101319190610814565b610303565b604051610143919061086f565b60405180910390f35b61016660048036038101906101619190611382565b61035e565b6040516101739190611485565b60405180910390f35b6101966004803603810190610191919061161c565b610411565b6040516101a391906116ee565b60405180910390f35b6101c660048036038101906101c19190611710565b6104c4565b6040516101d39190611787565b60405180910390f35b6000808260008573ffffffffffffffffffffffffffffffffffffffff1673ffffffffffffffffffffffffffffffffffffffff168152602001908152602001600020540361022c5760009050610231565b600190505b92915050565b61023f61064c565b61024984836102c9565b610288576040517f08c379a000000000000000000000000000000000000000000000000000000000815260040161027f90611806565b60405180910390fd5b8282856040516102989190611862565b908152602001604051809103902054815181106102b8576102b7611879565b5b602002602001015190509392505050565b60008082846040516102db9190611862565b908152602001604051809103902054036102f857600090506102fd565b600190505b92915050565b6000808260008573ffffffffffffffffffffffffffffffffffffffff1673ffffffffffffffffffffffffffffffffffffffff16815260200190815260200160002054036103535760009050610358565b600190505b92915050565b6103666106b9565b6103708483610303565b6103af576040517f08c379a00000000000000000000000000000000000000000000000000000000081526004016103a6906118f4565b60405180910390fd5b828260008673ffffffffffffffffffffffffffffffffffffffff1673ffffffffffffffffffffffffffffffffffffffff1681526020019081526020016000205481518110610400576103ff611879565b5b602002602001015190509392505050565b610419610700565b61042384836101dc565b610462576040517f08c379a000000000000000000000000000000000000000000000000000000000815260040161045990611960565b60405180910390fd5b828260008673ffffffffffffffffffffffffffffffffffffffff1673ffffffffffffffffffffffffffffffffffffffff16815260200190815260200160002054815181106104b3576104b2611879565b5b602002602001015190509392505050565b60606000820361050b576040518060400160405280600181526020017f30000000000000000000000000000000000000000000000000000000000000008152509050610647565b600082905060005b6000821461053d578080610526906119af565b915050600a826105369190611a26565b9150610513565b60008167ffffffffffffffff811115610559576105586108a5565b5b6040519080825280601f01601f19166020018201604052801561058b5781602001600182028036833780820191505090505b50905060008290505b6000861461063f576001816105a99190611a57565b90506000600a80886105bb9190611a26565b6105c59190611a8b565b876105d09190611a57565b60306105dc9190611ae5565b905060008160f81b9050808484815181106105fa576105f9611879565b5b60200101907effffffffffffffffffffffffffffffffffffffffffffffffffffffffffffff1916908160001a905350600a886106369190611a26565b97505050610594565b819450505050505b919050565b6040518060c001604052806000600281111561066b5761066a610e34565b5b81526020016000801916815260200160608152602001610689610728565b815260200161069661074a565b8152602001600073ffffffffffffffffffffffffffffffffffffffff1681525090565b6040518060a00160405280600073ffffffffffffffffffffffffffffffffffffffff1681526020016060815260200160008152602001600081526020016000151581525090565b6040518060800160405280606081526020016000815260200160008152602001600081525090565b6040518060400160405280600290602082028036833780820191505090505090565b6040518060400160405280600290602082028036833780820191505090505090565b6000604051905090565b600080fd5b600080fd5b600073ffffffffffffffffffffffffffffffffffffffff82169050919050565b60006107ab82610780565b9050919050565b6107bb816107a0565b81146107c657600080fd5b50565b6000813590506107d8816107b2565b92915050565b6000819050919050565b6107f1816107de565b81146107fc57600080fd5b50565b60008135905061080e816107e8565b92915050565b6000806040838503121561082b5761082a610776565b5b6000610839858286016107c9565b925050602061084a858286016107ff565b9150509250929050565b60008115159050919050565b61086981610854565b82525050565b60006020820190506108846000830184610860565b92915050565b600080fd5b600080fd5b6000601f19601f8301169050919050565b7f4e487b7100000000000000000000000000000000000000000000000000000000600052604160045260246000fd5b6108dd82610894565b810181811067ffffffffffffffff821117156108fc576108fb6108a5565b5b80604052505050565b600061090f61076c565b905061091b82826108d4565b919050565b600067ffffffffffffffff82111561093b5761093a6108a5565b5b61094482610894565b9050602081019050919050565b82818337600083830152505050565b600061097361096e84610920565b610905565b90508281526020810184848401111561098f5761098e61088f565b5b61099a848285610951565b509392505050565b600082601f8301126109b7576109b661088a565b5b81356109c7848260208601610960565b91505092915050565b600067ffffffffffffffff8211156109eb576109ea6108a5565b5b602082029050602081019050919050565b600080fd5b600080fd5b600080fd5b60038110610a1857600080fd5b50565b600081359050610a2a81610a0b565b92915050565b6000819050919050565b610a4381610a30565b8114610a4e57600080fd5b50565b600081359050610a6081610a3a565b92915050565b600067ffffffffffffffff821115610a8157610a806108a5565b5b602082029050919050565b6000610a9f610a9a84610a66565b610905565b90508060208402830185811115610ab957610ab86109fc565b5b835b81811015610ae25780610ace88826107c9565b845260208401935050602081019050610abb565b5050509392505050565b600082601f830112610b0157610b0061088a565b5b6002610b0e848285610a8c565b91505092915050565b600067ffffffffffffffff821115610b3257610b316108a5565b5b602082029050919050565b600060ff82169050919050565b610b5381610b3d565b8114610b5e57600080fd5b50565b600081359050610b7081610b4a565b92915050565b6000610b89610b8484610b17565b610905565b90508060208402830185811115610ba357610ba26109fc565b5b835b81811015610bcc5780610bb88882610b61565b845260208401935050602081019050610ba5565b5050509392505050565b600082601f830112610beb57610bea61088a565b5b6002610bf8848285610b76565b91505092915050565b60006101008284031215610c1857610c17610a01565b5b610c2260c0610905565b90506000610c3284828501610a1b565b6000830152506020610c4684828501610a51565b602083015250604082013567ffffffffffffffff811115610c6a57610c69610a06565b5b610c76848285016109a2565b6040830152506060610c8a84828501610aec565b60608301525060a0610c9e84828501610bd6565b60808301525060e0610cb2848285016107c9565b60a08301525092915050565b6000610cd1610ccc846109d0565b610905565b90508083825260208201905060208402830185811115610cf457610cf36109fc565b5b835b81811015610d3b57803567ffffffffffffffff811115610d1957610d1861088a565b5b808601610d268982610c01565b85526020850194505050602081019050610cf6565b5050509392505050565b600082601f830112610d5a57610d5961088a565b5b8135610d6a848260208601610cbe565b91505092915050565b6000819050919050565b610d8681610d73565b8114610d9157600080fd5b50565b600081359050610da381610d7d565b92915050565b600080600060608486031215610dc257610dc1610776565b5b600084013567ffffffffffffffff811115610de057610ddf61077b565b5b610dec868287016109a2565b935050602084013567ffffffffffffffff811115610e0d57610e0c61077b565b5b610e1986828701610d45565b9250506040610e2a86828701610d94565b9150509250925092565b7f4e487b7100000000000000000000000000000000000000000000000000000000600052602160045260246000fd5b60038110610e7457610e73610e34565b5b50565b6000819050610e8582610e63565b919050565b6000610e9582610e77565b9050919050565b610ea581610e8a565b82525050565b610eb481610a30565b82525050565b600081519050919050565b600082825260208201905092915050565b60005b83811015610ef4578082015181840152602081019050610ed9565b60008484015250505050565b6000610f0b82610eba565b610f158185610ec5565b9350610f25818560208601610ed6565b610f2e81610894565b840191505092915050565b600060029050919050565b600081905092915050565b6000819050919050565b610f62816107a0565b82525050565b6000610f748383610f59565b60208301905092915050565b6000602082019050919050565b610f9681610f39565b610fa08184610f44565b9250610fab82610f4f565b8060005b83811015610fdc578151610fc38782610f68565b9650610fce83610f80565b925050600181019050610faf565b505050505050565b600060029050919050565b600081905092915050565b6000819050919050565b61100d81610b3d565b82525050565b600061101f8383611004565b60208301905092915050565b6000602082019050919050565b61104181610fe4565b61104b8184610fef565b925061105682610ffa565b8060005b8381101561108757815161106e8782611013565b96506110798361102b565b92505060018101905061105a565b505050505050565b6000610100830160008301516110a86000860182610e9c565b5060208301516110bb6020860182610eab565b50604083015184820360408601526110d38282610f00565b91505060608301516110e86060860182610f8d565b5060808301516110fb60a0860182611038565b5060a083015161110e60e0860182610f59565b508091505092915050565b60006020820190508181036000830152611133818461108f565b905092915050565b6000806040838503121561115257611151610776565b5b600083013567ffffffffffffffff8111156111705761116f61077b565b5b61117c858286016109a2565b925050602061118d85828601610d94565b9150509250929050565b600067ffffffffffffffff8211156111b2576111b16108a5565b5b602082029050602081019050919050565b6000819050919050565b6111d6816111c3565b81146111e157600080fd5b50565b6000813590506111f3816111cd565b92915050565b61120281610854565b811461120d57600080fd5b50565b60008135905061121f816111f9565b92915050565b600060a0828403121561123b5761123a610a01565b5b61124560a0610905565b90506000611255848285016107c9565b600083015250602082013567ffffffffffffffff81111561127957611278610a06565b5b611285848285016109a2565b6020830152506040611299848285016111e4565b60408301525060606112ad848285016111e4565b60608301525060806112c184828501611210565b60808301525092915050565b60006112e06112db84611197565b610905565b90508083825260208201905060208402830185811115611303576113026109fc565b5b835b8181101561134a57803567ffffffffffffffff8111156113285761132761088a565b5b8086016113358982611225565b85526020850194505050602081019050611305565b5050509392505050565b600082601f8301126113695761136861088a565b5b81356113798482602086016112cd565b91505092915050565b60008060006060848603121561139b5761139a610776565b5b60006113a9868287016107c9565b935050602084013567ffffffffffffffff8111156113ca576113c961077b565b5b6113d686828701611354565b92505060406113e7868287016107ff565b9150509250925092565b6113fa816111c3565b82525050565b61140981610854565b82525050565b600060a0830160008301516114276000860182610f59565b506020830151848203602086015261143f8282610f00565b915050604083015161145460408601826113f1565b50606083015161146760608601826113f1565b50608083015161147a6080860182611400565b508091505092915050565b6000602082019050818103600083015261149f818461140f565b905092915050565b600067ffffffffffffffff8211156114c2576114c16108a5565b5b602082029050602081019050919050565b6000608082840312156114e9576114e8610a01565b5b6114f36080610905565b9050600082013567ffffffffffffffff81111561151357611512610a06565b5b61151f848285016109a2565b6000830152506020611533848285016111e4565b6020830152506040611547848285016111e4565b604083015250606061155b848285016111e4565b60608301525092915050565b600061157a611575846114a7565b610905565b9050808382526020820190506020840283018581111561159d5761159c6109fc565b5b835b818110156115e457803567ffffffffffffffff8111156115c2576115c161088a565b5b8086016115cf89826114d3565b8552602085019450505060208101905061159f565b5050509392505050565b600082601f8301126116035761160261088a565b5b8135611613848260208601611567565b91505092915050565b60008060006060848603121561163557611634610776565b5b6000611643868287016107c9565b935050602084013567ffffffffffffffff8111156116645761166361077b565b5b611670868287016115ee565b9250506040611681868287016107ff565b9150509250925092565b600060808301600083015184820360008601526116a88282610f00565b91505060208301516116bd60208601826113f1565b5060408301516116d060408601826113f1565b5060608301516116e360608601826113f1565b508091505092915050565b60006020820190508181036000830152611708818461168b565b905092915050565b60006020828403121561172657611725610776565b5b6000611734848285016111e4565b91505092915050565b600082825260208201905092915050565b600061175982610eba565b611763818561173d565b9350611773818560208601610ed6565b61177c81610894565b840191505092915050565b600060208201905081810360008301526117a1818461174e565b905092915050565b600082825260208201905092915050565b7f426174746c6520646f65736e2774206578697374210000000000000000000000600082015250565b60006117f06015836117a9565b91506117fb826117ba565b602082019050919050565b6000602082019050818103600083015261181f816117e3565b9050919050565b600081905092915050565b600061183c82610eba565b6118468185611826565b9350611856818560208601610ed6565b80840191505092915050565b600061186e8284611831565b915081905092915050565b7f4e487b7100000000000000000000000000000000000000000000000000000000600052603260045260246000fd5b7f506c6179657220646f65736e2774206578697374210000000000000000000000600082015250565b60006118de6015836117a9565b91506118e9826118a8565b602082019050919050565b6000602082019050818103600083015261190d816118d1565b9050919050565b7f47616d6520746f6b656e20646f65736e27742065786973742100000000000000600082015250565b600061194a6019836117a9565b915061195582611914565b602082019050919050565b600060208201905081810360008301526119798161193d565b9050919050565b7f4e487b7100000000000000000000000000000000000000000000000000000000600052601160045260246000fd5b60006119ba826111c3565b91507fffffffffffffffffffffffffffffffffffffffffffffffffffffffffffffffff82036119ec576119eb611980565b5b600182019050919050565b7f4e487b7100000000000000000000000000000000000000000000000000000000600052601260045260246000fd5b6000611a31826111c3565b9150611a3c836111c3565b925082611a4c57611a4b6119f7565b5b828204905092915050565b6000611a62826111c3565b9150611a6d836111c3565b9250828203905081811115611a8557611a84611980565b5b92915050565b6000611a96826111c3565b9150611aa1836111c3565b9250817fffffffffffffffffffffffffffffffffffffffffffffffffffffffffffffffff0483118215151615611ada57611ad9611980565b5b828202905092915050565b6000611af082610b3d565b9150611afb83610b3d565b9250828201905060ff811115611b1457611b13611980565b5b9291505056fea2646970667358221220acbbb4b25c49bd9cf193c9fcf5f09ad69b90422dcff5c3a39596cbd297fc31a664736f6c63430008100033",
  "devdoc": {
    "kind": "dev",
    "methods": {},
    "version": 1
  },
  "userdoc": {
    "kind": "user",
    "methods": {},
    "version": 1
  },
  "storageLayout": {
    "storage": [],
    "types": null
  }
}